:020000040800F2
:10000000280B002059310008F1020008F302000813
:10001000F7020008FB020008FF02000800000000D1
:1000200000000000000000000000000003030008C2
:10003000050300080000000007030008090300088A
:100040007331000873310008733100087331000800
:1000500073310008733100087331000873310008F0
:1000600073310008733100087331000873310008E0
:1000700073310008733100087331000873310008D0
:1000800073310008733100087331000873310008C0
:1000900073310008733100087331000873310008B0
:1000A00073310008733100087331000873310008A0
:1000B000733100088D2A000873310008733100087D
:1000C0007331000873310008733100087331000880
:1000D0007331000873310008733100087331000870
:1000E000B12A000873310008733100087331000829
:1000F0007331000873310008733100087331000850
:10010000733100087331000873310008733100083F
:10011000733100087331000873310008733100082F
:10012000733100087331000873310008733100081F
:10013000733100087331000873310008733100080F
:1001400073310008733100087331000873310008FF
:1001500073310008733100087331000873310008EF
:1001600073310008733100087331000873310008DF
:1001700073310008733100087331000873310008CF
:10018000733100087331000800F002F800F03CF809
:100190000AA090E8000C82448344AAF10107DA45E2
:1001A00001D100F031F8AFF2090EBAE80F0013F0F8
:1001B000010F18BFFB1A43F0010318470C6700003A
:1001C0002C670000103A24BF78C878C1FAD85207CB
:1001D00024BF30C830C144BF04680C6070470000C1
:1001E0000023002400250026103A28BF78C1FBD840
:1001F000520728BF30C148BF0B6070471FB506F0DB
:10020000B2FA1FBD10B510BD04F0F4FE1146FFF7A1
:10021000F5FF00F03BF804F012FF03B4FFF7F2FF24
:1002200003BC04F013FF00001CB50121084603F0D5
:100230002BFE4FF48070009003208DF80500022003
:100240008DF8040000208DF8060001208DF80700CD
:100250006946244803F096F81CBD1CB50121042012
:1002600003F012FE4FF40070009003208DF805009B
:1002700002208DF8040000208DF8060001208DF882
:1002800007006946184803F07DF81CBDA82002F05D
:10029000E1FE02F04FFC02F086FE012013490860E7
:1002A0004FF4FA6002F038FF1BE0102002F034FF38
:1002B00005204FF0C0410880012002F02DFF4FF6CD
:1002C000FB7041074880012002F026FF4FF6FB70CB
:1002D00041078880012002F01FFF05204FF0C04138
:1002E000C880E2E70000024000080240A4824242C7
:1002F000704700BFFEE700BFFEE700BFFEE700BF9C
:10030000FEE7704770477047704700000CB500204B
:10031000019000907648006840F48030744908608D
:1003200000BF7348006800F4003000900198401C42
:100330000190009818B90198B0F5A04FF1D16C4820
:10034000006800F4003010B10120009001E00020AE
:1003500000900098012846D165484030006840F080
:1003600080506349403108606248006840F4404072
:10037000604908605E48083000685D4908310860DF
:100380000846006840F4004008600846006840F4F1
:10039000A05008605848091F0860081F006840F016
:1003A0008070091F086000BF5148006800F00070AD
:1003B0000028F9D040F20570504908604C480830D8
:1003C000006820F003004A490831086008460068C8
:1003D00040F00200086000BF45480830006800F0A7
:1003E0000C000828F8D10CBD10B54548006840F451
:1003F0007000434908603E48006840F001003C49F5
:10040000086000203A4908310860394800683D49D1
:100410000840374908603C48091D0860081F00680B
:1004200020F48020091F0860002031490C31086049
:10043000FFF76CFF4FF0006031498039086010BD54
:1004400070B500200022022300240221284D083527
:100450002D6805F00C0020B1042806D0082834D1FE
:1004600007E02A4D2A4E356033E02A4D284E35608C
:100470002FE01F4D2D1D2D68C5F380541C4D2D1DE3
:100480002D6805F03F0154B1224DB5FBF1F5184E32
:10049000361D3668C6F3881605FB06F209E01B4DCB
:1004A000B5FBF1F5124E361D3668C6F3881605FB0E
:1004B00006F20F4D2D1D2D68C5F301456D1C6B0017
:1004C000B2FBF3F5124E356003E0104D104E35606F
:1004D00000BF00BF064D08352D68C5F303150E4E4D
:1004E000705D0B4D2D68C540094E356070BD000034
:1004F000003802400070004008544007003C0240B1
:1005000088ED00E0FFFFF6FE103000240024F40028
:100510000000002000127A00040000201CB5012118
:10052000102003F0B1FC4FF48060009001208DF8A2
:10053000040000208DF8060003208DF8050001203E
:100540008DF807006946FA4802F01CFF4FF48061FD
:10055000F74802F093FF4FF40040009000208DF820
:10056000040003208DF8050001208DF8070069467E
:10057000EF4802F007FF4FF40041ED4802F07EFF24
:100580004FF48050009001208DF8040000208DF879
:10059000060003208DF8050001208DF8070069464C
:1005A000E34802F0EFFE4FF48051E14802F066FFAD
:1005B0004FF40050009001208DF8040000208DF8C9
:1005C000060003208DF8050001208DF8070069461C
:1005D000D74802F0D7FE4FF40051D54802F04EFF45
:1005E0004FF40060009001208DF8040000208DF889
:1005F000060003208DF8050001208DF807006946EC
:10060000CB4802F0BFFE4FF40061C94802F036FF4C
:100610004FF48040009000208DF8040001208DF8F8
:1006200007006946C24802F0ADFE4FF48041C04861
:1006300002F024FF1CBD10B5014600220020BC4B77
:100640005B6923F48053BA4C636100BF35E001F06D
:100650008003802B06D1B64B5B6943F40053B44C46
:10066000636105E0B24B5B6923F40053B04C6361F6
:100670004B06190EAE4B5B6943F48053AC4C63617F
:1006800000BF00BF4306180EA94B1B6903F480434B
:10069000B3F5804F01D0012300E0002383F0010374
:1006A0000BB140F00100A24B5B6923F48053A04CD6
:1006B000636100BF00BF531CDAB2082AC7DB10BD5C
:1006C00030B504469A48406920F400609849486172
:1006D0002046FFF7B0FFFF20FFF7ADFF0546944827
:1006E000406940F4006092494861284630BDF0B549
:1006F00004460E4617468E48406920F400608C4937
:1007000048612046FFF797FF002505E0FF20FFF72F
:1007100092FF7055681CC5B2BD42F7DB8448406942
:1007200040F4006082494861F0BD30B504460D4692
:100730007F48406920F400607D49486144F0200012
:10074000FFF779FF2846FFF776FF7948406940F4C4
:1007500000607749486130BDF0B505460E46174642
:100760007348406920F400607149486145F02000F9
:10077000FFF761FF002404E0305DFFF75CFF601CC1
:10078000C4B2BC42F8DB6A48406940F40060684982
:100790004861F0BD00B56648406920F400606449D6
:1007A0004861E120FFF747FF6148406940F400607D
:1007B0005F49486100BD00B55D48406920F40060B4
:1007C0005B494861E220FFF736FF5948406940F431
:1007D00000605749486100BD00B55548406920F4A4
:1007E000006053494861E320FFF725FF5048406906
:1007F00040F400604E49486100BD00B54C48406976
:1008000020F400604A494861FF20FFF714FF484880
:10081000406940F400604649486100BD10B5444855
:10082000406920F40060424948610720FFF703FF58
:1008300004463F48406940F400603D494861204615
:1008400010BD30B50446002504F07004FFF7E6FF44
:1008500005463748406920F4006035494861272043
:10086000FFF7E9FE44EA0500FFF7E5FE304840697E
:1008700040F400602E494861FFF7D0FF30BD00B55D
:10088000FFF7CCFF00F0700000BD10B528484069AC
:1008900020F40060264948616020FFF7CCFEFF206D
:1008A000FFF7C9FE04462248406940F40060204931
:1008B0004861204610BD70B505460720FFF700FFD0
:1008C000C0F34204FFF7E1FF06461948406920F4EF
:1008D0000060174948616120FFF7ADFE002405E084
:1008E000FF20FFF7A8FE2855601CC4B2B442F7DB16
:1008F0000F48406940F400600D494861FFF75BFF15
:10090000304670BDF0B505460E46202E01DD202094
:1009100000E030460746FFF73DFF0548406920F4F8
:10092000006003494861A020FFF785FE002406E02F
:1009300000100240285DFFF77EFE601CC4B2BC427E
:10094000F8DBFE48406940F40060FC494861F0BDB6
:1009500030B505460C46202C00DC04B930BDF74804
:10096000406920F40060F5494861B020FFF763FE5C
:1009700003E02878FFF75FFE6D1C2000A4F1010161
:10098000CCB2F6D1ED48406940F40060EB494861D3
:1009900000BFE3E770B506460D46202D01DD20209F
:1009A00000E028460546E548406920F40060E34938
:1009B0004861A820FFF73FFE002404E0305DFFF708
:1009C0003AFE601CC4B2AC42F8DBDC48406940F43B
:1009D0000060DA49486170BD30B505460C46052C0B
:1009E00001DD052000E0204604462246294610206D
:1009F000FFF7B2FE30BD70B504460E461546052D14
:100A000001DD052000E028460546052C01DD052016
:100A100000E02046044604F10A01C8B22A463146E5
:100A2000FFF79AFE70BD30B5054600240620FFF79B
:100A300047FE044624F0280415B944F0200408E0D9
:100A4000012D02D124F0280403E0022D01D144F04D
:100A5000080421460620FFF768FE30BD30B5054684
:100A60000620FFF72DFE20F0070435B1012D06D03A
:100A7000022D07D0032D0BD107E000BF09E044F0A1
:100A8000020406E044F0040403E044F0060400E03D
:100A900000BF00BF21460620FFF747FE30BD10B55E
:100AA000044604F07F010520FFF73FFE10BD1FB58F
:100AB000A3A103C9CDE902010020009001901AE032
:100AC000052202A91020FFF747FE052269461020E3
:100AD000FFF70DFE002408E002A8005D1DF80410D9
:100AE000884200D003E0601CC4B2052CF4DB00BFD8
:100AF000052C00D100E0E3E700BF1FBD30B5044680
:100B000000250020FFF7DCFD054614B925F001059E
:100B100003E0012C01D145F0010529460020FFF733
:100B200004FE30BDF0B505460E460024002783487C
:100B3000406920F4006081494861E120FFF77BFDB6
:100B40007E48406940F400607C494861084640693D
:100B500020F48060486132462946A020FFF7FCFD62
:100B60007648406940F480607449486100BF73482A
:100B7000006900F40040002181EAD0300028F6D15D
:100B80000720FFF79DFD044621460720FFF7CDFD16
:100B900004F0100028B1FF21E120FFF7C6FD10206E
:100BA000F0BD04F0200008B12020F9E7FF20F7E7AE
:100BB000F0B504460025002600270720FFF780FD3A
:100BC000054629460720FFF7B0FD05F0400070B14B
:100BD0006020FFF775FD0646324621466120FFF78B
:100BE00086FDFF21E220FFF7A0FD3046F0BD00208A
:100BF000FCE70CB554A103C9CDE900014F48406999
:100C000040F480604D4948617020FFF71AFE0121D1
:100C10001C20FFF78AFD07211D20FFF786FD1C2001
:100C2000FFF74EFD1D20FFF74BFD0A210020FFF7C7
:100C30007CFD01210846FFF778FD01210220FFF726
:100C400074FD03210846FFF770FDFF210420FFF724
:100C50006CFD3C210520FFF768FD26210620FFF7EB
:100C600064FD05216846FFF7B7FE052269460020AE
:100C7000FFF7C1FE0CBD70B504460D4616462F4861
:100C8000406920F400602D49486105E02878FFF7AD
:100C9000D2FC2070641C6D1C3000A6F101018EB2E4
:100CA000F4D12648406940F400602449486170BD91
:100CB0001CB50121102003F0E7F80121202003F0EA
:100CC000E3F80121402003F0DFF84FF4807000903A
:100CD00001208DF8040000208DF8060003208DF817
:100CE000050001208DF807006946144802F04AFB10
:100CF0004FF48071114802F0C1FB4FF48040009026
:100D000000208DF8040001208DF807006946104886
:100D100002F038FB4FF480410D4802F0AFFB022097
:100D2000009001208DF8040000208DF806000320BB
:100D30008DF8050001208DF807000BE0001002403F
:100D4000A5A5A5A5A50000003443101001000000D2
:100D5000001402406946FE4802F014FB0221FC48E0
:100D600002F08CFB012000908DF8040000208DF82B
:100D7000060003208DF8050001208DF80700694664
:100D8000F34802F0FFFA0121F14802F077FB8020DE
:100D9000009001208DF8040000208DF8060003204B
:100DA0008DF8050001208DF807006946E94802F03A
:100DB000E9FA8021E74802F061FB4FF4004000901F
:100DC00000208DF8040001208DF807006946E248F4
:100DD00002F0D8FA4FF40041DF4802F04FFB1CBD8F
:100DE00010B5014600220020D94B14331B6823F0B4
:100DF0000203D74C1434236000BF3EE001F08003AF
:100E0000802B08D1D24B14331B6843F00103D04C24
:100E10001434236007E0CE4B14331B6823F0010326
:100E2000CB4C143423604B06190EC94B14331B688A
:100E300043F00203C64C1434236000BF00BF4306D6
:100E4000180EC54B10331B6803F40043B3F5004F75
:100E500001D0012300E0002383F001030BB140F037
:100E60000100BB4B14331B6823F00203B84C14344D
:100E7000236000BF00BF531CDAB2082ABEDB10BDDE
:100E800030B50446B348406920F08000B14948615C
:100E90002046FFF7A5FFFF20FFF7A2FF0546AD485C
:100EA000406940F08000AB494861284630BDF0B54C
:100EB00004460E461746A748406920F08000A54921
:100EC00048612046FFF78CFF002505E0FF20FFF773
:100ED00087FF7055681CC5B2BD42F7DB9D4840696D
:100EE00040F080009B494861F0BD30B504460D4696
:100EF0009848406920F080009649486144F02000FD
:100F0000FFF76EFF2846FFF76BFF9248406940F0FD
:100F100080009049486130BDF0B505460E46174641
:100F20008C48406920F080008A49486145F02000E3
:100F3000FFF756FF002404E0305DFFF751FF601C0F
:100F4000C4B2BC42F8DB8348406940F0800081496C
:100F50004861F0BD00B57F48406920F080007D49C0
:100F60004861E120FFF73CFF7A48406940F080008B
:100F70007849486100BD00B57648406920F080009E
:100F800074494861E220FFF72BFF7248406940F046
:100F900080007049486100BD00B56E48406920F08E
:100FA00080006C494861E320FFF71AFF69484069F7
:100FB00040F080006749486100BD00B56548406960
:100FC00020F0800063494861FF20FFF709FF614876
:100FD000406940F080005F49486100BD10B55D4840
:100FE000406920F080005B4948610720FFF7F8FE68
:100FF00004465848406940F0800056494861204600
:1010000010BD30B50446002504F07004FFF7E6FF7C
:1010100005465048406920F080004E49486127202D
:10102000FFF7DEFE44EA0500FFF7DAFE49484069B3
:1010300040F0800047494861FFF7D0FF30BD00B560
:10104000FFF7CCFF00F0700000BD10B541484069CB
:1010500020F080003F4948616020FFF7C1FEFF207B
:10106000FFF7BEFE04463B48406940F08000394926
:101070004861204610BD70B505460720FFF700FF08
:10108000C0F34204FFF7E1FF06463248406920F012
:101090008000304948616120FFF7A2FE002405E08E
:1010A000FF20FFF79DFE2855601CC4B2B442F7DB59
:1010B0002848406940F0800026494861FFF75BFFFF
:1010C000304670BDF0B505460E46202E01DD2020CD
:1010D00000E030460746FFF73DFF1E48406920F01C
:1010E00080001C494861A020FFF77AFE002404E03C
:1010F000285DFFF775FE601CC4B2BC42F8DB1548E2
:10110000406940F0800013494861F0BD30B50546A4
:101110000C46202C00DC04B930BD0E48406920F09C
:1011200080000C494861B020FFF75AFE03E02878A0
:10113000FFF756FE6D1C2000A4F10101CCB2F6D1E0
:101140000448406940F080000249486100BFE3E77D
:1011500000180240001002400014024070B506461C
:101160000D46202D01DD202000E028460546C3481D
:10117000406920F08000C1494861A820FFF730FE97
:10118000002404E0305DFFF72BFE601CC4B2AC42CB
:10119000F8DBBA48406940F08000B849486170BD4A
:1011A00030B505460C46052C01DD052000E0204643
:1011B0000446224629461020FFF7AEFE30BD70B52A
:1011C00004460E461546052D01DD052000E02846A3
:1011D0000546052C01DD052000E02046044604F10B
:1011E0000A01C8B22A463146FFF796FE70BD30B5F7
:1011F000054600240620FFF743FE044624F0280499
:1012000015B944F0200408E0012D02D124F028048F
:1012100003E0022D01D144F0080421460620FFF727
:1012200064FE30BD30B505460620FFF729FE20F0EC
:10123000070435B1012D06D0022D07D0032D0BD1A7
:1012400007E000BF09E044F0020406E044F00404B3
:1012500003E044F0060400E000BF00BF2146062082
:10126000FFF743FE30BD10B5044604F07F010520B2
:10127000FFF73BFE10BD1FB5AFF23C5103C9CDE9EE
:1012800002010020009001901AE0052202A910201E
:10129000FFF742FE052269461020FFF708FE0024F2
:1012A00008E002A8005D1DF80410884200D003E0A9
:1012B000601CC4B2052CF4DB00BF052C00D100E09B
:1012C000E3E700BF1FBD30B5044600250020FFF74F
:1012D000D7FD054614B925F0010503E0012C01D125
:1012E00045F0010529460020FFF7FFFD30BDF0B5B0
:1012F00005460E46002400276048406920F0800023
:101300005E494861E120FFF76BFD5C48406940F0B1
:1013100080005A4948610846406920F4807048615D
:1013200032462946A020FFF7F7FD5448406940F4B3
:1013300080705249486100BF5148006800F4804005
:10134000002181EA90300028F6D10720FFF798FDB0
:10135000044621460720FFF7C8FD04F0100028B11D
:10136000FF21E120FFF7C1FD1020F0BD04F02000B7
:1013700008B12020F9E7FF20F7E7F0B50446002583
:10138000002600270720FFF77BFD0546294607209A
:10139000FFF7ABFD05F0400070B16020FFF770FD76
:1013A0000646324621466120FFF781FDFF21E220FB
:1013B000FFF79BFD3046F0BD0020FCE70CB5AFF217
:1013C000786103C9CDE900012C48406940F4807080
:1013D0002A4948617020FFF714FE01211C20FFF705
:1013E00084FD07211D20FFF780FD1C20FFF748FD2D
:1013F0001D20FFF745FD0A210020FFF776FD0121A2
:101400000846FFF772FD01210220FFF76EFD032160
:101410000846FFF76AFDFF210420FFF766FD3C2127
:101420000520FFF762FD26210620FFF75EFD05215E
:101430006846FFF7B5FE052269460020FFF7BFFEAC
:101440000CBD70B504460D4616460C48406920F0A8
:1014500080000A49486105E02878FFF7C1FC207048
:10146000641C6D1C3000A6F101018EB2F4D103485A
:10147000406940F080000149486170BD00100240A1
:101480001014024030B52DED068B85B0EF4BD3E93B
:1014900001211868DB68CDE90313CDE901029FED56
:1014A000EC0AEC4880ED270A0120EA490864002094
:1014B000486400244DE001A800EB840090ED000A90
:1014C00010EE101A084605F0DDF841EC1A0B9FEDFE
:1014D000E20B53EC102B04F0F1FB41EC190B9FEDE8
:1014E000E00B53EC102B04F0D7FD41EC180B04F08B
:1014F000FFFA0546284605F0C5F841EC190BB0EE99
:10150000490AF0EE690A03F023FEB0EE408AF0EEDD
:10151000608A51EC180B04F0EBFACE49B43141F873
:101520002400284605F0AEF841EC190BB0EE490A4C
:10153000F0EE690A03F0A8FDB0EE408AF0EE608A92
:1015400051EC180B04F0D4FAC249C43141F824001C
:10155000641C042CAFDB05B0BDEC068B30BD70B550
:101560002DED088B84B006460C461546284604F03F
:101570002CFD41EC1B0B9FEDBC0B53EC102B04F02E
:101580008BFD41EC180B204604F01FFD41EC190BBC
:10159000304604F01AFD41EC1A0B052064210022AC
:1015A0001346CDE9002102901146B0EE482AF0EE34
:1015B000682AB0EE491AF0EE691AB0EE4A0AF0EE67
:1015C0006A0A012000F0A0FC04B0BDEC088B70BDDD
:1015D00010B504469F48406C20B9D4E90512206933
:1015E000FFF7BDFF002010BD9A48D0ED270A60EE3E
:1015F000800AFDEEE00A10EE900A70472DE9F043F4
:101600002DED0A8B85B006460F469046002400203B
:10161000019002900390049000EE106AB8EEC00AA8
:1016200010EE100A05F02EF841EC1B0B9FED900B0D
:1016300053EC102B04F042FB41EC1A0B04F058FA67
:1016400008EE100A00EE107AB8EEC00A10EE100A8A
:1016500005F018F841EC1B0B9FED850B53EC102B9C
:1016600004F02CFB41EC1A0B04F042FA08EE900A4D
:1016700000EE108AB8EEC00A10EE100A05F002F86B
:1016800041EC1C0B9FED780B53EC102B04F004FD88
:1016900041EC1B0B9FED780B53EC102B04F0FCFC82
:1016A00041EC1A0B04F024FA09EE100A00BF17E00F
:1016B0006848B43000EB840090ED000A20EE080A80
:1016C0006448C43000EB8400D0ED000A00EEA80AA4
:1016D00030EE090A01A800EB840080ED000A641CCA
:1016E000042CE5DB00243EE04FF0000901A800EBEC
:1016F0008400D0ED000AB0EE600AFFF775FF04EB3E
:10170000840254494C3101EB8201086104EB8401ED
:1017100050484C3000EB810005697F2D04DC15F149
:10172000800F01DB05F0FF0934B1012C09D0022C38
:101730000CD0032C14D10EE00021484601F077FABA
:101740000FE00121484601F072FA0AE00221484602
:1017500001F06DFA05E00321484601F068FA00E067
:1017600000BF00BF641C042CBEDB002005B0BDEC34
:101770000A8BBDE8F08310B5364890ED021BB0EE41
:10178000410AF0EE610A9FED3E1B53EC112B51EC28
:10179000100B04F045FC02D29FED3B0B10BD2D4811
:1017A00090ED021BB0EE410AF0EE610A9FED381B8E
:1017B00053EC112B51EC100B04F032FC02D29FEDD4
:1017C000360BEBE79FED360BE8E73EB504460D46DA
:1017D000642000210B460A46CDE901040091294608
:1017E0009FED312B9FED301B9FED2F0B022000F062
:1017F0008BFB00203EBD3EB504460D46072064210C
:101800000022CDE90021029040F6C41005FB00F251
:10181000234600219FED242B9FED231B9FED220BE0
:10182000032000F071FB00203EBD70B504460D465C
:1018300024B121460020FFF7DEFF04E01DB1294658
:101840000120FFF7D8FF002070BD00007C67000872
:101850007513944270000020000000000080664074
:101860006E861BF0F92109409A9999999999993FA7
:101870000000000000005940CBA145B6F3FDB43F85
:10188000000000000000E0BF0000000000804140B8
:1018900000000000000000C0000000000080464082
:1018A0000000000000003A400000000000000000BE
:1018B0002DE9F04303460C46904600210022002506
:1018C00003B11CB94FF0FF30BDE8F083FE48006C57
:1018D00094F80190B0EB191F01D101251DE060784B
:1018E00000F00F00DFF8E093D9F84090484501D1AF
:1018F000022512E0F448006C94F80290B0EB191F36
:1019000001D1032509E0A07800F00F00DFF8B893BB
:10191000D9F84090484500D1042515B94FF0FF3063
:10192000D2E7E948006C18600120C0EB8500C2B224
:10193000012D06D0022D74D0032D6DD0042D6CD155
:1019400033E1A15CC1F30110586001F0800010B1D7
:101950005868404200E05868586002F11400215C69
:10196000A05CC0F3801030B17F2902D19620D860EE
:1019700007E0D96005E07F2902D19620986000E059
:101980009960501C215C01F07F001861E67C06F034
:10199000C0004FF6FF7909EA400618693044186123
:1019A000501C215C01F0800010B11869404200E039
:1019B00018691861901C215C01F07F005861E77C78
:1019C00007F030004FF6FF7909EAC007586938443C
:1019D0005861901C215C01F0800010B158694042B0
:1019E00000E058695861D01C215C01F07F009861CB
:1019F00094F813C00CF00F004FF6FF7909EAC01CF1
:101A0000986960449861D01C215C01F0800028B185
:101A10009869404203E004E065E028E19869986134
:101A200026E1A15CC1F30110586001F0800010B103
:101A30005868404200E05868586002F11100215C8B
:101A4000A05CC0F3801030B17F2902D19620D8600D
:101A500007E0D96005E07F2902D19620986000E078
:101A60009960501C215C01F07F001861207D00F01E
:101A7000C0004100186908441861501C215C01F045
:101A8000800010B11869404200E018691861901C8C
:101A9000215C01F07F005861207D00F03000C10022
:101AA000586908445861901C215C01F0800010B115
:101AB0005869404200E058695861D01C215C01F02F
:101AC0007F009861207D0007410D98690844986166
:101AD000D01C215C01F0800010B19869404200E008
:101AE00098699861C4E0A15CC1F30110586001F0ED
:101AF000800010B15868404200E05868586002F118
:101B00000E00215CA05CC0F3801030B17F2902D1AF
:101B10009620D86007E0D96005E07F2902D19620A1
:101B2000986000E09960501C215C01F07F00186112
:101B3000607D00F0C0004100186908441861501C25
:101B4000215C01F0800010B11869404200E0186982
:101B50001861901C215C01F07F005861607D00F0ED
:101B60003000C100586908445861901C215C01F0A4
:101B7000800010B15869404200E058695861D01C9B
:101B8000215C01F07F009861607D0007410D98693C
:101B900008449861D01C215C01F0800010B1986964
:101BA000404200E09869986162E0A15CC1F30110D5
:101BB000586001F0800010B15868404200E0586859
:101BC000586002F10B00215CA05CC0F3801030B1C2
:101BD0007F2902D19620D86007E0D96005E07F29EF
:101BE00002D19620986000E09960501C215C01F0C1
:101BF0007F001861A07D00F0C00041001869084412
:101C00001861501C215C01F0800010B1186940423D
:101C100000E018691861901C215C01F07F00586198
:101C2000A07D00F03000C100586908445861901C44
:101C3000215C01F0800010B15869404200E0586911
:101C40005861D01C215C01F07F009861A07D0007E5
:101C5000410D986908449861D01C215C01F0800016
:101C600010B19869404200E09869986100E000BFB7
:101C700000BF002028E60146FF20087002204870BF
:101C8000114890F8400000F00F0088700120C870E3
:101C9000022008710320487101200C4A10700020B6
:101CA00070470146FF20087001204870064890F8F0
:101CB000400000F00F0088700120C87002200871F9
:101CC00003204871012003E0700000201400002070
:101CD0000C4A10700020704702460B46117801F044
:101CE000C001891121B1012904D0032906D103E0E3
:101CF000072070470020FCE70220FAE74FF0FF3092
:101D0000F7E700001400002030B587B004460D4608
:101D100029462046FFF7E0FF764908701C216846F7
:101D200003F02AF92A4621466846FFF7C1FD00283C
:101D300003DA4FF0FF3007B030BD6846FFF748FCCC
:101D40000020F8E710B5002400BF05E06A48005DF8
:101D50006A490855601CC4B21B2CF7DB1B2167487D
:101D6000FFF7D2FF002010BD7CB50020009001904D
:101D700000266248C078C0F3C00050B95F48C079FF
:101D8000C0F3C00028B95D48C07AC0F3C000002885
:101D90007DD0002500205A4908705A48006C082858
:101DA0000DDD5648407800F00F00564991F840107C
:101DB000093901228A40104068B96D1E0BE04F4876
:101DC0008078504991F84010491E01228A40104005
:101DD00008B94FF0FF35681C002831D0002549486C
:101DE000006C09280FDA002407E0444880780121BC
:101DF000A140084000B16D1C641C4248006C401EAC
:101E0000A042F2DC1CE0002407E03C48807801217D
:101E1000A140084000B16D1C641C082CF5DB0024B7
:101E200009E03648407800F00F000121A140084049
:101E300000B16D1C641C3348006C0938A042F0DC12
:101E4000681C002853D0A800C01C2C49085CC0F3B3
:101E5000C00000284BD06846FFF723FF28480078D1
:101E6000012844D19DF80000234908709DF8010025
:101E700048709DF8020088709DF80300C8709DF8B6
:101E8000040008719DF805004871062605E00AE087
:101E9000002019498855701CC6B2212EF8DB642039
:101EA00001F03AF923E06846FFF7E5FE14480078B0
:101EB00001281CD1FF2010490870022048709DF8AD
:101EC000020088709DF80300C8709DF80400087136
:101ED0009DF805004871062604E000200649885553
:101EE000701CC6B2212EF8DB642001F015F9002029
:101EF0007CBD0000150000203000002050000020B4
:101F000014000020700000202DE9F0472DED068B15
:101F10000546B0EE408AF0EE608AB0EE419AF0EEEF
:101F2000619AB0EE42AAF0EE62AA884691469A46BD
:101F3000DDE90E67109C012D04D0022D44D0032D45
:101F40007AD159E0C4EBC401FE4840F831509FED0E
:101F5000FE0B53EC102B51EC180B03F0AFFEC4EB4F
:101F6000C403F84A02EBC302C2E902019FEDF60B7B
:101F700053EC102B51EC190B03F0A0FEC4EBC4037F
:101F8000F04A02EBC302C2E904019FEDF10B53ECEE
:101F9000102B51EC1A0B04F07FF8C4EBC403E94A90
:101FA00002EBC302C2E90601C4EBC401E54800EB41
:101FB000C1000662C4EBC401E24800EBC100476205
:101FC000BDEC068BBDE8F087C4EBC401DD4840F8EA
:101FD0003150C4EBC40100EBC100C0F82880C4EB51
:101FE000C401D84800EBC1000662C4EBC401D54867
:101FF00000EBC1004762E3E7C4EBC401D14840F8FD
:102000003150C4EBC40100EBC100C0F82C90C4EB0C
:10201000C401CC4800EBC100C0F830A0C4EBC4013F
:10202000C84800EBC1000662C4EBC401C54800EB20
:10203000C1004762C4E7FFE700BFC1E70022C0EB71
:10204000C003C04941F83320704700B597B0002065
:10205000159003201590FDE30F201690FBE31698D2
:10206000C0EBC001B74800EBC100006A00280FDDDB
:102070001698C0EBC001B34800EBC100006A401ED7
:102080001699C1EBC102AF4901EBC2010862FDE341
:102090001698C0EBC001AB4850F83110159881423A
:1020A0007ED1159803287BD01598022810D1169858
:1020B000C0EBC001A34800EBC10090F82800042148
:1020C000149000F0B4FD9F49D83916988863F4E362
:1020D0001598012865D19B48D83890ED040B8DEDFB
:1020E000060B1698C0EBC001964800EBC10090EDBE
:1020F000040B8DED040B9DED060B53EC102B9DEDA9
:10210000040B51EC100B04F0D3F9CDE90A018D4812
:10211000D83890ED040B8DED060B1698C0EBC0017E
:10212000884800EBC10090ED040B8DED040B9DED94
:10213000060B53EC102B9DED040B51EC100B04F02F
:10214000B7F9CDE908019DED0A0B53EC102B9DED7D
:10215000080B51EC100B03F09FFFCDE90E017948FD
:10216000D83890ED020B8DED060B1698C0EBC00130
:10217000744800EBC10090ED020B8DED040B9DED5A
:10218000060B53EC102B9DED040B51EC100B04F0DF
:102190008FF9CDE90A016B48D83890ED020B01E0C8
:1021A000F3E3CCE38DED060B1698C0EBC001654858
:1021B00000EBC10090ED020B8DED040B9DED060BC5
:1021C00053EC102B9DED040B51EC100B04F070F947
:1021D000CDE908019DED0A0B53EC102B9DED080B8A
:1021E00051EC100B03F058FFCDE90C019DED0E0BE7
:1021F00053EC102B9DED0C0B51EC100B03F0AAFCD3
:10220000CDE910019DED100B03F006F88DED120BDA
:102210009FED510B53EC102B9DED120B51EC100B5D
:1022200004F038F87ED24748D83890ED040B8DED95
:10223000020B1698C0EBC001424800EBC10090EDC4
:10224000040B8DED000B9DED020B53EC102B9DED5F
:10225000000B51EC100B04F02BF9CDE906013948C5
:10226000D83890ED040B8DED020B1698C0EBC00131
:10227000344800EBC10090ED040B8DED000B9DED9B
:10228000020B53EC102B9DED000B51EC100B04F0E6
:102290000FF9CDE904019DED060B53EC102B9DEDDC
:1022A000040B51EC100B03F0F7FECDE90A012548B1
:1022B000D83890ED020B8DED020B1698C0EBC001E3
:1022C000204800EBC10090ED020B8DED000B9DED61
:1022D000020B53EC102B9DED000B51EC100B04F096
:1022E000E7F8CDE906011748D83890ED020B8DEDDF
:1022F000020B1698C0EBC001124800EBC10090ED34
:10230000020B8DED000B9DED020B53EC102B9DEDA0
:10231000000B51EC100B04F0CBF8CDE904019DED5E
:10232000060B00E022E253EC102B9DED040B51EC68
:10233000100B03F0B1FECDE908019DED0A0B53EC43
:10234000102B0DE048010020000000000000594063
:10235000CBA145B6F3FDB43F7B14AE47E17A843F91
:102360009DED080B51EC100B03F0F4FBCDE90C01D3
:102370009DED0C0B02F050FF8DED100BFA4890ED27
:10238000020B8DED0A0B1698C0EBC001F648D83051
:1023900000EBC10090ED020B8DED080B9DED0A0BDB
:1023A00053EC102B9DED080B51EC100B04F080F852
:1023B0001FED170B53EC102BCDE90C019DED0C0B11
:1023C00051EC100B03F068FECDE90E019DED100BF2
:1023D00053EC102B9DED0E0B51EC100B03F06EFC2B
:1023E000CDE91201E04890ED020B8DED100B9DED53
:1023F000100B53EC102B9DED120B51EC100B03F056
:10240000A9FBD94AC2E90201104690ED040B8DEDFB
:10241000020B1698C0EBC00102F1D80000EBC1001E
:1024200090ED040B8DED000B9DED020B53EC102B8A
:102430009DED000B51EC100B04F03AF8CDE90601CC
:10244000C94890ED040B8DED020B1698C0EBC0014E
:10245000C548D83000EBC10090ED040B8DED000BAA
:102460009DED020B53EC102B9DED000B51EC100B6E
:1024700004F01EF8CDE904019DED060B53EC102B82
:102480009DED040B51EC100B03F006FECDE90A01A3
:10249000B54890ED020B8DED020B1698C0EBC00114
:1024A000B148D83000EBC10090ED020B8DED000B70
:1024B0009DED020B53EC102B9DED000B51EC100B1E
:1024C00003F0F6FFCDE90601A74890ED020B8DED74
:1024D000020B1698C0EBC001A348D83000EBC10036
:1024E00090ED020B8DED000B9DED020B53EC102BCC
:1024F0009DED000B51EC100B03F0DAFFCDE9040168
:102500009DED060B53EC102B9DED040B51EC100BC5
:1025100003F0C2FDCDE908019DED0A0B53EC102B31
:102520009DED080B51EC100B03F014FBCDE90C01F1
:102530009DED0C0B02F070FE8DED100B8A4890EDB6
:10254000040B8DED0A0B1698C0EBC0018648D830FD
:1025500000EBC10090ED040B8DED080B9DED0A0B17
:1025600053EC102B9DED080B51EC100B03F0A0FF6A
:102570001FED870B53EC102BCDE90C019DED0C0BDF
:1025800051EC100B03F088FDCDE90E019DED100B11
:1025900053EC102B9DED0E0B51EC100B03F08EFB4A
:1025A000CDE91201704890ED040B8DED100B9DEDFF
:1025B000100B53EC102B9DED120B51EC100B03F094
:1025C000C9FA694AC2E90401104690ED040B8DED89
:1025D000020B1698C0EBC00102F1D80000EBC1005D
:1025E00090ED040B8DED000B9DED020B53EC102BC9
:1025F0009DED000B51EC100B03F05AFFCDE90601E5
:10260000594890ED040B8DED020B1698C0EBC001FC
:102610005548D83000EBC10090ED040B8DED000B58
:102620009DED020B53EC102B9DED000B51EC100BAC
:1026300003F03EFFCDE904019DED060B53EC102B9A
:102640009DED040B51EC100B03F026FDCDE90A01C2
:10265000454890ED020B8DED020B1698C0EBC001C2
:102660004148D83000EBC10090ED020B8DED000B1E
:102670009DED020B53EC102B9DED000B51EC100B5C
:1026800003F016FFCDE90601374890ED020B8DED02
:10269000020B1698C0EBC0013348D83000EBC100E4
:1026A00090ED020B8DED000B9DED020B53EC102B0A
:1026B0009DED000B51EC100B03F0FAFECDE9040187
:1026C0009DED060B53EC102B9DED040B51EC100B04
:1026D00003F0E2FCCDE908019DED0A0B53EC102B51
:1026E0009DED080B51EC100B03F034FACDE90C0111
:1026F0009DED0C0B02F090FD8DED100B1698C0EBCC
:10270000C0011948D83000EBC10090ED060B8DEDEB
:102710000C0B9DED0C0B53EC102B1FEDF10B51EC42
:10272000100B03F0B9FCCDE90E019DED100B53EC3D
:10273000102B9DED0E0B51EC100B03F0BFFACDE901
:102740001201094890ED060B8DED100B9DED100B5D
:1027500053EC102B9DED120B51EC100B03F0FAF91A
:10276000014AC2E9060125E0700000201698C0EB7E
:10277000C001AA4800EBC10090ED020BA748D83871
:1027800080ED020B1698C0EBC001A44800EBC1001D
:1027900090ED040BA148D83880ED040B1698C0EBDF
:1027A000C0019E4800EBC10090ED060B9B48D83855
:1027B00080ED060B0020149070E0984814381499AE
:1027C00050F82100079003F05DFFCDE90801934820
:1027D000D83890ED040B8DED060B9DED060B53ECF8
:1027E000102B9DED080B51EC100B03F055FCCDE9BF
:1027F0000C018A482438149950F82100079003F0FE
:1028000041FFCDE908018548D83890ED020B8DEDE8
:10281000060B9DED060B53EC102B9DED080B51ECB8
:10282000100B03F039FCCDE90A019DED0C0B53ECC4
:10283000102B9DED0A0B51EC100B03F08BF9CDE939
:102840000E017648D83890ED060B8DED0C0B9DED02
:102850000C0B01E0AFE0A6E053EC102B9DED0E0B4E
:1028600051EC100B03F076F9CDE910019DED100B42
:1028700051EC100B03F03CF913909DED130AFEF799
:10288000B3FE149901EB8102644900E088E08C39C1
:1028900001EB820108611498401C149014980428DC
:1028A0008BDB0020149042E0149838B1012812D03C
:1028B00002281DD0032835D127E078E0149800EBDA
:1028C000800156488C3800EB8100007C0021139079
:1028D00000F0ADF927E0149800EB80014F488C38E8
:1028E00000EB8100007C0121139000F0A0F91AE0B8
:1028F000149800EB800149488C3800EB8100007C83
:102900000221139000F093F90DE0149800EB800180
:1029100042488C3800EB8100007C0321139000F0CA
:1029200086F900E000BF00BF1498401C1490149872
:102930000428B9DB3949D8391698486337E0159827
:1029400018BB0020149026E0149805281ED2DFE85A
:1029500000F003080D1217000021084600F067F987
:1029600015E00121002000F062F910E002210020B2
:1029700000F05DF90BE00321002000F058F906E0BB
:102980000421002000F053F901E008E000BF00BF7F
:102990001498401C149014980528D5DB00BF00BF84
:1029A0001698401E169016980028BFF658AB00BF28
:1029B0001598401E1590159800283FF74DAB0F2035
:1029C00016901EE01698C0EBC001144800EBC10041
:1029D000406A002803DC1698FFF730FB0EE01698DB
:1029E000C0EBC0010D4800EBC100406A401E1699C3
:1029F000C1EBC102094901EBC20148621698401EB1
:102A0000169016980228DDDC17B000BD10B54FF403
:102A100036710248A83002F0AFFA10BD480100201C
:102A20007FB505460C460121022001F076FA029599
:102A3000ADF804400020ADF80600ADF80C0001A987
:102A4000194801F06CFC01221146174802F008F900
:102A50000121154801F0ECFC1D208DF8000001203B
:102A60008DF8010003208DF8020001208DF803008D
:102A7000684600F096FB7FBD10B50C480068401C0E
:102A80000A49086000BFFFF7E0FA10BD10B5012148
:102A9000054802F0FCF8012801D1FFF7EDFF012104
:102AA000014802F005F910BD0004004018000020A4
:102AB00010B51D48FEF77CF804461B2C07D11B48B7
:102AC0000068C0431A49C1F8A802FFF73BF94FF468
:102AD000004002F048FA10BD0EB50121880301F054
:102AE0002DFA0F21042001F034FB4FF40040009038
:102AF00000208DF804000C208DF8050001208DF8D1
:102B00000600684602F0BEF928208DF80800002073
:102B10008DF8090002208DF80A0001208DF80B00C5
:102B200002A800F03EFB0EBD30000020A882424209
:102B3000008042421CB50121202001F0A5F94FF48C
:102B4000C060009001208DF8040000208DF8060080
:102B500003208DF8050001208DF807006946044820
:102B600000F010FC4FF4C061014800F089FC1CBD6E
:102B7000001402401CB50121084601F085F901212D
:102B8000042001F081F90121082001F07DF90121E3
:102B9000102001F079F90121202001F075F90120C0
:102BA00000908DF8040000208DF806008DF80500D7
:102BB00069464A4800F0E6FB0220009001208DF8AB
:102BC000040000208DF806008DF805006946434892
:102BD00000F0D8FB1020009001208DF804000020A8
:102BE0008DF806008DF8050069463D4800F0CAFBE7
:102BF0002020009001208DF8040000208DF80600B0
:102C00008DF805006946364800F0BCFB8020009036
:102C100000208DF8040002208DF807006946304836
:102C200000F0B0FB80212E4800F02AFC1CBD2DE9ED
:102C3000F04104460D46002600272021284800F0D8
:102C40001FFC012000F020FA00BF36E001212348DC
:102C500000F014FC04F0800020B102211F4800F0B5
:102C60000DFC03E002211D4800F00AFC05F0800085
:102C700020B110211A4800F001FC03E0102118488F
:102C800000F0FEFB6006040E6806050E012000F051
:102C9000FBF90121114800F0F3FB012000F0F4F9E9
:102CA0007006060E80210E4800F0CEFB3044C6B2FE
:102CB000012000F0E9F9781CC7B2082FC6DB01211A
:102CC000064800F0DDFB012000F0DEF92021044879
:102CD00000F0D4FB3046BDE8F08100000010024057
:102CE000000C02401CB50121782001F0CDF8002035
:102CF0008DF8060001208DF8070002208DF80400F1
:102D000003208DF80500012000906946CD4800F0B1
:102D100039FB0C220021CB4800F0BFFB02200090C1
:102D20006946C84800F02EFB0C220121C54800F07E
:102D3000B4FB042000906946C24800F023FB0C223B
:102D40000221C04800F0A9FB082000906946BD4858
:102D500000F018FB0C220321BA4800F09EFB102063
:102D600000906946B74800F00DFB0C220421B548DD
:102D700000F093FB202000906946B24800F002FB6F
:102D80000C220521AF4800F088FB4FF480500090E2
:102D90006946AC4800F0F6FA0C221146A94800F04A
:102DA0007CFB4FF4005000906946A64800F0EAFA18
:102DB0000C220D21A34800F070FB4FF480400090DE
:102DC0006946A14800F0DEFA0C220E219E4800F070
:102DD00064FB4FF40040009069469B4800F0D2FA33
:102DE0000C220F21984800F058FB01200090694602
:102DF000954800F0C7FA0C220021934800F04DFBE3
:102E0000022000906946904800F0BCFA0C22012193
:102E10008D4800F042FB8020009069468B4800F00E
:102E2000B1FA0C220721894800F037FB4FF480707B
:102E300000906946854800F0A5FA0C2208218348D5
:102E400000F02BFB4FF40070009069467F4800F0C3
:102E500099FA0C2209217D4800F01FFB4FF4806095
:102E600000906946794800F08DFA0C220A217748D3
:102E700000F013FB4FF4006000906946734800F0C7
:102E800081FA0C220B21714800F007FB4FF48050AF
:102E9000009069466D4800F075FA0C2211466B48A7
:102EA00000F0FBFA4FF4005000906946674800F0CC
:102EB00069FA0C220D21654800F0EFFA4FF48040CA
:102EC00000906946614800F05DFA0C220E215F48CF
:102ED00000F0E3FA4FF40040009069465B4800F0D0
:102EE00051FA0C220F21594800F0D7FA4FF48070A4
:102EF00000906946544800F045FA0C2208215248D7
:102F000000F0CBFA4FF40070009069464E4800F094
:102F100039FA0C2209214C4800F0BFFA4FF48060C6
:102F200000906946484800F02DFA0C220A214648D4
:102F300000F0B3FA4FF4805000906946444800F026
:102F400021FA0C221146424800F0A7FA20200090F6
:102F500069463D4800F016FA0C2205213A4800F077
:102F60009CFA102000906946374800F00BFA0C22BA
:102F70000421354800F091FA022000906946334858
:102F800000F000FA0C220121304800F086FA0120FE
:102F9000009069462D4800F0F5F90C2200212B48DD
:102FA00000F07BFA1CBD00B597B0FFF79BFE012136
:102FB000084600F0A1FF0020019002900820039035
:102FC00000200490059006900790089009900A90C0
:102FD00010200B9000200C900D900E900F901090F0
:102FE0004FF480501190002012901390149001A87B
:102FF0001590169008A800F0A4FA0121002000F016
:103000002BFB17B000BD18B5009108E010C8009B5D
:1030100003F1C0431C60009B1B1D0093521E002A3D
:10302000F4D118BD08B5009108E0009B03F1C0433E
:103030001B6808C0009B1B1D0093521E002AF4D180
:1030400008BD000000140240000C024000100240C5
:103050000018024010B504466FF0040000F0EEF8CE
:10306000E11704EB5171C1F3C701394A11701046E1
:10307000007800EB4001C1EBC0104FF6FF7101EA90
:10308000C0003449088010BD0146314A12784A43D5
:103090004FF0E0235A6100229A611A46126942F009
:1030A00001021A6100BF4FF0E022106900F0010236
:1030B0001AB100F48032002AF5D04FF0E0221269F4
:1030C00022F001024FF0E0231A6100229A6170475A
:1030D0000146204A12884A434FF0E0235A610022F9
:1030E0009A611A46126942F001021A6100BF4FF05C
:1030F000E022106900F001021AB100F48032002AC7
:10310000F5D04FF0E022126922F001024FF0E023E7
:103110001A6100229A61704770B504464FF4077037
:1031200094FBF0F0C6B24FF4077094FBF0F100FB93
:10313000114085B205E04FF40770FFF7C9FF701E1C
:10314000C6B2002EF7D115B12846FFF7C1FF70BDFA
:103150001C0000201E000020094880470948004745
:10316000FEE7FEE7FEE7FEE7FEE7FEE7FEE7FEE737
:10317000FEE7FEE704480549054A064B7047000094
:10318000E90300088901000828050020280B002019
:10319000280700202807002032490143324A1160E5
:1031A000704770B5002100230F22C4781CB32E4C49
:1031B000246804F4E064C4F5E064C4F30721C1F1B9
:1031C0000404E3B20A4144789C40E1B2847814409C
:1031D00021430C07210E254C05786155047804F035
:1031E0001F050124AC4005786D11AD0005F1E02507
:1031F000C5F8004109E0047804F01F050124AC4043
:103200001B4D0678761145F8264070BD194A0A40D4
:103210000243154B1B1F1A60704739B1124A121D29
:1032200012680243104B1B1D1A6006E00E4A121D65
:10323000126882430C4B1B1D1A607047042808D18A
:103240004FF0E021096941F004014FF0E0221161E3
:1032500007E04FF0E021096921F004014FF0E0227E
:10326000116170470000FA050CED00E000E400E099
:1032700080E100E080FFFF1F10B5044698488442BB
:1032800008D10121084600F06AFE0021012000F06B
:1032900066FE76E09348844208D10121022000F0C6
:1032A0005EFE0021022000F05AFE6AE08E48844251
:1032B00008D10121042000F052FE0021042000F07A
:1032C0004EFE5EE08948844208D10121082000F0CA
:1032D00046FE0021082000F042FE52E0844884426D
:1032E00008D10121102000F03AFE0021102000F04A
:1032F00036FE46E07F48844208D10121202000F0BC
:103300002EFE0021202000F02AFE3AE07A48844276
:1033100008D10121402000F022FE0021402000F0D1
:103320001EFE2EE07548844208D10121802000F065
:1033300016FE0021802000F012FE22E07048844238
:1033400008D10121801500F00AFE0021A01500F02F
:1033500006FE16E06B48844208D10121401500F0BA
:10336000FEFD0021601500F0FAFD0AE06648844287
:1033700007D10121001500F0F2FD0021201500F019
:10338000EEFD10BDF0B50A4600210023002400BF69
:103390003DE0012505FA01F3156805EA03049C42A6
:1033A00034D105684F000326BE40B543056015794A
:1033B0004E00B5400668354305601579012D02D0F1
:1033C0001579022D16D185684F000326BE40B543FE
:1033D000856055794E00B5408668354385604568FF
:1033E00001268E40B5434560456896798E40B6B259
:1033F00035434560C5684F000326BE40B543C560F0
:10340000D5794E00B540C6683543C560491C1029C2
:10341000BFD3F0BD4FF6FF71016000210171417112
:103420008171C171704708B54FF480320092009AE3
:103430000A430092009AC261C161009AC261C269E6
:103440000092C269009208BD0246002013690B4039
:103450000BB1012000E0002070470146086980B2EE
:1034600070470246002053690B400BB1012000E079
:10347000002070470146486980B270470183704759
:10348000418370470AB1018300E041837047416185
:10349000704742694A4042617047F0B500230024FA
:1034A0004D07ED0E02FA05F3CE1000F1200555F898
:1034B00026504E07F70E0F26BE40B543CF1000F141
:1034C000200646F82750CE1000F1200555F826506A
:1034D00045EA0304CE1000F1200545F82640F0BD72
:1034E000000002400004024000080240000C0240BC
:1034F000001002400014024000180240001C02406C
:1035000000200240002402400028024030B943F26B
:10351000DB028100A1F1C0410A6005E043F2D20262
:103520008100A1F1C0410A606FF07042411C890026
:10353000A1F1C0410A608100A1F1C041C1F804219C
:103540007047D0E901121143C26811430269114367
:103550004269114382691143C2691143026A1143EE
:10356000426A1143826A1143C26A1143026B1143DA
:1035700002689200A2F1C0421160816808290BD153
:1035800001688900A1F1C041096841F04002016869
:103590008900A1F1C0410A60416B0968426B526821
:1035A00041EA0211426B926841EA0221426B928920
:1035B00041EA0241426B128A41EA0251426B127D9A
:1035C00041EA0261426B926911430268521C920007
:1035D000A2F1C0421160C16AB1F5804F1BD1816B6D
:1035E0000968826B526841EA0211826B926841EA73
:1035F0000221826B128A41EA0251826B127D41EAFA
:103600000261826B9269114302689200A2F1C0428A
:10361000C2F8041107E06FF0704201688900A1F15F
:10362000C041C1F8042170470021016002214160BE
:1036300000218160C160016141618161C1610162FC
:103640004FF480514162490081620021C1620163EF
:10365000F84941638163704751B18200A2F1C042D1
:10366000126842F001038200A2F1C042136009E037
:103670008200A2F1C0421268EF4B1A408300A3F10E
:10368000C0431A60704710280AD118214FF0204219
:103690001166402151664FF0FC319166D16610E011
:1036A0001821E64A116040214FF02042C2F88410F0
:1036B0004FF0FC31E14A083211604FF02042C2F86D
:1036C0008C10704730B5002100220023446844F07C
:1036D000080485682C43C5682C4305692C4345695B
:1036E00044EA4524856944EA4531C4692468C569CA
:1036F0006D6844EA0524C5692D8944EA0544C56915
:103700002D7B44EA0562046A2468056A6D6844EA10
:103710000524056A2D8944EA0544056A2D7B44EA9F
:1037200005630468102C05D14FF020442166A26681
:10373000E36608E0C14C21604FF02044C4F88820C3
:10374000BE4C0C34236030BD10210160002141606B
:103750008160C160016141618161FC21C2691160C8
:10376000C2695160C2699160C269D160026A116028
:10377000026A5160026A9160026AD160704799B131
:10378000102808D14FF02042126E42F004024FF090
:1037900020431A661DE0A94A126842F004024FF065
:1037A0002043C3F8802014E0102809D14FF02042B4
:1037B000126EA14BDB1E1A404FF020431A6608E040
:1037C0009E4A12689C4BDB1E1A404FF02043C3F800
:1037D0008020704799B1102808D14FF02042126E16
:1037E00042F040024FF020431A661DE0934A1268EF
:1037F00042F040024FF02043C3F8802014E010282C
:1038000009D14FF02042126E8B4B3F3B1A404FF0D4
:1038100020431A6608E0894A1268874B3F3B1A40EA
:103820004FF02043C3F88020704701460020102944
:1038300003D14FF02042506F02E0804A14321068EA
:10384000704718207D492031086000200906C1F822
:10385000A4004FF0FC30794928310860091D086048
:10386000091D08607047016841F01001426841EA93
:103870004221826841EA4231704A20321160C168B7
:103880000968C268526841EA0221C268128941EAA5
:103890000241C268127B41EA0261684A2832116023
:1038A000016909680269526841EA022102691289C4
:1038B00041EA02410269127B41EA02615F4A2C320D
:1038C0001160416909684269526841EA022142690E
:1038D000128941EA02414269127B41EA02614FF0DA
:1038E0002042C2F8B0107047002101604160816041
:1038F000FC21C2681160C2685160C2689160C268F0
:10390000D1600269116002695160026991600269C7
:10391000D1604269116042695160426991604269B7
:10392000D160704748B145492031096841F0040130
:103930004FF02042C2F8A01009E040492031096848
:103940003D4AD21E11404FF02042C2F8A0107047ED
:1039500010B5F2B1102807D14FF020435B6E0B4336
:103960004FF02044636632E0B0F5807F08D1334BDE
:103970001B1D1B680B434FF02044C4F8843026E025
:103980002E4B24331B680B434FF02044C4F8A43063
:103990001DE0102807D14FF020435B6E8B434FF0A2
:1039A0002044636613E0B0F5807F08D1234B1B1DD4
:1039B0001B688B434FF02044C4F8843007E01F4B52
:1039C00024331B688B434FF02044C4F8A43010BD4F
:1039D00010B5024600200023102A03D14FF02044E6
:1039E000636E09E0B2F5807F03D1144C241D236877
:1039F00002E0124C2434236803EA01040CB10120D4
:103A000000E0002010BD102807D14FF02042526E78
:103A10008A434FF020435A6619E0B0F5807F0FD1FA
:103A2000064A121D12688A434FF02043C3F88420CF
:103A30000DE000008C670008FEFF0F00800000A072
:103A4000234A12688A434FF02043C3F8A4207047EA
:103A500070B502460020002300240025102A03D15F
:103A60004FF02046736E08E0B2F5807F03D1184E08
:103A7000203E336801E0164E336803EA010403EA8E
:103A8000D10514B10DB1012000E0002070BD102857
:103A900008D14FF02042526E22EAD1024FF020436B
:103AA0005A6614E0B0F5807F09D1094A203A1268BD
:103AB00022EAD1024FF02043C3F8842007E0044AF1
:103AC000126822EAD1024FF02043C3F8A4207047C5
:103AD000A40000A0F948006840F00100F749086020
:103AE0000020F64908310860F4480068F4490840AD
:103AF000F2490860F348091D0860F348EF49843132
:103B00000860F0481038091D0860EC48006820F48F
:103B10008020EA4908600020E8490C310860E74944
:103B20008C31086070470021E44A921C11701146E4
:103B30000870704710B501460022002300204A118A
:103B4000012A02D1DD4C236808E0022A03D1DB4CB4
:103B50007034236802E0D94C7434236801F01F02EA
:103B6000012494401C400CB1012000E0002010BD55
:103B700038B5002000900024002500BF3120FFF759
:103B8000D9FF05460098401C00900098B0F5A04F62
:103B900001D0002DF2D03120FFF7CCFF08B1012475
:103BA00000E00024204638BD01460020C34A1068CA
:103BB00020F0F80040EAC10010607047C349086077
:103BC00070470021BD4A703211701170012802D077
:103BD00004280AD104E00121B84A7032117005E0CE
:103BE0000521B64A7032117000E000BF00BF704777
:103BF000B7490860704770B5049C41EA82150126F8
:103C0000C6EB530645EA0645054345EA0465AB4E57
:103C1000361D356070BDAD4908667047820142EAC5
:103C20000172A64B84331A607047A84988667047B2
:103C300010B5830143EA016343EA02739F4C883461
:103C4000236010BDA14908677047A049C864704748
:103C500002460020994B0833186820F0EC6042EAD5
:103C600001031843954B0833186070470246002043
:103C7000924B0833186820F0784042EA0103184359
:103C80008E4B083318607047014600208B4A08327B
:103C9000106820F003000843106070478748083020
:103CA000006800F00C00704701460020834A08328B
:103CB000106820F0F00008431060704701460020B3
:103CC0007E4A0832106820F4E050084310607047C4
:103CD00001460020794A0832106820F4604040EA2A
:103CE000C10010607047F0B50021002200240225B9
:103CF00000260223714F08373F6807F00C0121B1FD
:103D0000042905D0082937D105E0724F076036E055
:103D1000714F076033E0694F3F1D3F68C7F380561E
:103D2000664F3F1D3F6807F03F036EB16A4FB7FB18
:103D3000F3F7DFF888C10CF1040CDCF800C0CCF319
:103D4000881C07FB0CF40CE0624FB7FBF3F7DFF8BD
:103D50006CC10CF1040CDCF800C0CCF3881C07FB30
:103D60000CF4564F3F1D3F68C7F301477F1C7D0091
:103D7000B4FBF5F7076002E0564F076000BF00BFD5
:103D80004E4F08373F6807F0F0010909534F7A5C3E
:103D90000768D7404760494F08373F6807F4E0514C
:103DA000890A4E4F7A5C4768D7408760434F08378F
:103DB0003F6807F46041490B484F7A5C4768D74039
:103DC000C760F0BD002100F44072B2F5407F0AD117
:103DD0003A4A0832116821F4F811414A024011436D
:103DE000364A08321160354A70321268C0F30B034C
:103DF0001A43324B70331A607047354944390860B2
:103E00007047334940390860704736490860704749
:103E100001460020294A8C32106820F01F004A1EFB
:103E20001043264A8C321060704701460020234A16
:103E30008C32106820F4F8504A1E40EA02201F4AD3
:103E40008C3210607047014600201C4A8C3210688A
:103E500020F4401008431060704701460020174AC4
:103E60008C32106820F4400008431060704701460F
:103E70000020124A8C32106820F440300843106051
:103E8000704719490860704739B10C4A30321268DE
:103E900002430A4B30331A6006E0084A3032126897
:103EA0008243064B30331A607047F9B1034A34320B
:103EB00012680243014B34331A601CE000380240A0
:103EC000FFFFF6EA103000240030002000004742D7
:103ED000800E47420024F40000127A0020000020E7
:103EE000FFFCFF0F5C014742E01147428F4A126816
:103EF00082438E4B1A60704739B18C4A121D12688A
:103F000002438A4B1B1D1A6006E0884A121D126884
:103F10008243864B1B1D1A60704739B1834A0C32AD
:103F200012680243814B0C331A6006E07F4A0C3260
:103F3000126882437D4B0C331A60704739B17B4A5B
:103F4000103212680243794B10331A6006E0774A48
:103F5000103212688243754B10331A60704739B1C2
:103F6000724A243A12680243704B243B1A6006E0FE
:103F70006E4A243A126882436C4B243B1A607047A5
:103F800039B16A4A203A12680243684B203B1A60F2
:103F900006E0664A203A12688243644B203B1A606E
:103FA000704739B1614A1C3A126802435F4B1C3BAF
:103FB0001A6006E05D4A1C3A126882435B4B1C3B68
:103FC0001A60704739B1594A143A12680243574B84
:103FD000143B1A6006E0554A143A12688243534B68
:103FE000143B1A60704739B1504A103A12680243C4
:103FF0004E4B103B1A6006E04C4A103A126882435E
:104000004A4B103B1A60704739B1484A1C3212685B
:104010000243464B1C331A6006E0444A1C321268C5
:104020008243424B1C331A60704739B13F4A2032F9
:10403000126802433D4B20331A6006E03B4A2032AF
:1040400012688243394B20331A60704739B1374ABE
:10405000243212680243354B24331A6006E0334A97
:10406000243212688243314B24331A60704739B1CD
:104070002E4A2C32126802432C4B2C331A6006E075
:104080002A4A2C3212688243284B2C331A6070471C
:1040900039B1264A303212680243244B30331A6059
:1040A00006E0224A303212688243204B30331A60D5
:1040B0007047012808D11D493C31096841F00801C9
:1040C0001A4A3C32116007E018493C31096821F076
:1040D0000801164A3C321160704739B1134A273A39
:1040E00012780243114B273B1A7006E00F4A273A19
:1040F000127882430D4B273B1A7070470B484030B3
:10410000006840F0807009494031086070470146FE
:104110000020064A283A12680A400AB1012000E04D
:104120000020704701492639087070473438024032
:1041300010B501218803FFF756FF00214FF480409E
:10414000FFF751FF10BD1C49086070471B4908620A
:10415000704730B500228B071C0F0F2303FA04F2BF
:10416000154B08338C1053F824309343124C083409
:104170008D1044F8253023468C1053F824308C07DA
:10418000240F00FA04F423430B4C08348D1044F838
:10419000253030BD0949DC310860704708490860A6
:1041A0007047002004492031096801F4807109B189
:1041B000012000E000207047003801400000274245
:1041C0000004274210B50446FE48844208D101216C
:1041D0000846FFF708FF00210120FFF704FF9DE0DC
:1041E000B4F1804F08D101210846FFF7EBFE002112
:1041F0000120FFF7E7FE91E0F348844208D1012156
:104200000220FFF7DFFE00210220FFF7DBFE85E042
:10421000EE48844208D101210420FFF7D3FE00219B
:104220000420FFF7CFFE79E0E948844208D101215C
:104230000820FFF7C7FE00210820FFF7C3FE6DE04E
:10424000E448844208D101211020FFF7BBFE002181
:104250001020FFF7B7FE61E0DF48844208D101215A
:104260002020FFF7AFFE00212020FFF7ABFE55E036
:10427000DA48844208D101210220FFF7B4FE002170
:104280000220FFF7B0FE49E0D548844209D1012160
:104290000804FFF7A8FE00214FF48030FFF7A3FECB
:1042A0003CE0D048844209D101214804FFF79BFE3D
:1042B00000214FF40030FFF796FE2FE0CA488442F9
:1042C00009D101218804FFF78EFE00214FF48020E0
:1042D000FFF789FE22E0C548844208D10121402031
:1042E000FFF770FE00214020FFF76CFE16E0C0488B
:1042F000844208D101218020FFF764FE0021802044
:10430000FFF760FE0AE0BB48844207D10121801517
:10431000FFF758FE0021A015FFF754FE10BD002244
:104320000288A84B98420ED0AC4B98420BD0B0F10B
:10433000804F08D0A44B984205D0A44B984202D09D
:10434000A34B984204D14FF68F731A404B881A43FF
:10435000A04B984207D0A04B984204D04FF6FF43A1
:104360001A400B891A4302804B68C3620B8803858D
:10437000944B984202D0994B984201D18B7A038694
:104380000123838270474FF0FF314160002101809B
:1043900001814180817270470185828270470A469F
:1043A000002101884FF68F73194011430180704737
:1043B00041627047C16270470146486A70470146D2
:1043C000088D704721B1028842F00202028004E0A9
:1043D00002884FF6FD731A400280704721B10288AF
:1043E00042F00402028004E002884FF6FB731A4098
:1043F0000280704721B1028842F08002028004E00E
:1044000002884FF67F731A400280704702884FF689
:10441000F7731A40028002880A43028070470288BC
:104420004FF6FF431A40028002880A430280704719
:1044300021B1028842F00102028004E002884FF6B6
:10444000FE731A400280704770B5002400220023DA
:10445000058C4FF6FE7635400584028C8388048BEC
:104460004FF68F752C40B51E2C400D882C43751EC1
:104470002A408D892A434D882A43524DA84202D0B2
:10448000564DA84213D14FF6F7752A40CD892A43DD
:104490004FF6FB752A408D882A434FF6FF652B4067
:1044A0004FF6FF552B400D8A2B434D8A2B438380BB
:1044B00004838D684563028470BD70B500240022BA
:1044C0000023058C4FF6EF7635400584028C8388F7
:1044D000048B48F6FF752C404FF6FF452C400D88A5
:1044E0004FF6FF7606EA05252C434FF6DF752A4086
:1044F0008D8906EA05152A434D8806EA05152A43E3
:10450000304DA84202D0354DA8421DD14FF67F75DF
:104510002A40CD894FF6FF7606EA05152A434FF665
:10452000BF752A408D8806EA05152A434FF6FF35E8
:104530002B404FF2FF752B400D8A06EA85052B4371
:104540004D8A06EA85052B43838004838D68856345
:10455000028470BD70B5002400220023058C4FF644
:10456000FF6635400584028C8388848B4FF68F75F7
:104570002C404FF6FC752C400D882C434FF6FF5510
:104580002A408D894FF6FF7606EA05252A434D8895
:1045900006EA05252A430B4DA84202D00F4DA8423A
:1045A00038D14FF2FF752A40CD894FF6FF7606EAE3
:1045B00005252A434FF6FF352A408D8806EA052552
:1045C0002A4319E0000001400004004000080040B8
:1045D000000C0040001000400014004000040140A6
:1045E00000400140004401400048014000180040E4
:1045F000001C0040002000404EF6FF752B404DF699
:10460000FF752B400D8A06EA05152B434D8A06EAF5
:1046100005152B43838084838D68C563028470BD38
:1046200070B5002200230024058C4EF6FF7635403D
:104630000584038C8488828B48F6FF752A404FF6E8
:10464000FF452A400D884FF6FF7606EA05252A43E6
:104650004DF6FF752B408D8906EA05352B434D88B5
:1046600006EA05352B43FE4DA84202D0FD4DA84277
:1046700008D14BF6FF752C400D8A4FF6FF7606EAFF
:1046800085152C43848082838D680564038470BD06
:10469000002101804180818081608181C18101820E
:1046A0004182704770B50346002000241846183038
:1046B00001258D40ACB21D8CA5431D8409B108298C
:1046C0000AD100EB610005684FF68F763540056032
:1046D0000568154305600FE00D1FC5F34E0528441E
:1046E000056848F6FF763540056005684FF6FF76A9
:1046F00006EA02263543056070BD41637047816359
:104700007047C1637047016470470A460021018BFE
:104710004FF68F7319401143018370470A460021F9
:10472000018B48F6FF7319404FF6FF7303EA02232B
:104730001943018370470A460021818B4FF68F731E
:1047400019401143818370470A460021818B48F646
:10475000FF7319404FF6FF7303EA02231943818365
:1047600070470A460021018B4FF6F7731940114339
:10477000018370470A460021018B4FF2FF731940F5
:104780004FF6FF7303EA02231943018370470A4679
:104790000021818B4FF6F7731940114381837047D5
:1047A0000A460021818B4FF2FF7319404FF6FF73C9
:1047B00003EA02231943818370470A460021018BD3
:1047C0004FF6FB7319401143018370470A460021DD
:1047D000018B4FF6FF3319404FF6FF7303EA0223B4
:1047E0001943018370470A460021818B4FF6FB7302
:1047F00019401143818370470A460021818B4FF68F
:10480000FF3319404FF6FF7303EA022319438183F4
:1048100070470A460021018B4FF67F731940114300
:10482000018370470A460021018BC1F30E014FF648
:10483000FF7303EA02231943018370470A460021EC
:10484000818B4FF67F7319401143818370470A466D
:104850000021818BC1F30E014FF6FF7303EA02239F
:104860001943818370470A460021018C4FF6FD737E
:1048700019401143018470470A460021018C4FF60C
:10488000F77319401143018470470A460021018CD7
:104890004FF6DF7319404FF6FF7303EA0213194313
:1048A000018470470A460021018C4FF67F7319403E
:1048B0004FF6FF7303EA02131943018470470A4657
:1048C0000021018C4FF6FF5319404FF6FF7303EAA6
:1048D00002231943018470470A460021018C4FF2DC
:1048E000FF7319404FF6FF7303EA02231943018453
:1048F00070470A460021018C4DF6FF7319404FF6B0
:10490000FF7303EA023319430184704730B5002373
:1049100001248C40A3B2048C9C430484048C02FACE
:1049200001F5ADB22C43048430BD30B5002304241E
:104930008C40A3B2048C9C430484048C02FA01F5DD
:10494000ADB22C43048430BD828B4FF2FF331A404A
:104950008283828B4FF6FF7303EA01231A4382831B
:104960007047F0B50C461546002100220026078C42
:104970004EF6FF7C07EA0C070784818B028C4FF60A
:10498000FF7707EA043640F6FF4739404FF6FF77D6
:1049900007EA052739434FF6FF7707EA033739431C
:1049A00045F6FF773A4046F480573A4381830284C4
:1049B000F0BD828B4FF6F3731A408283828B0A43D9
:1049C00082837047F0B50C46154600210022002670
:1049D000078C4FF6FF6C07EA0C070784818B028C6B
:1049E0004FF6FF7707EA04264FF60C7739404FF66B
:1049F000FF7707EA03172F4339434FF2FF573A4037
:104A000046F480773A4381830284F0BD028B4FF2F3
:104A1000FF331A400283028B4FF6FF7303EA012330
:104A20001A4302837047F0B50C4615460021002258
:104A30000026078C4FF6EF7C07EA0C070784018BF2
:104A4000028C4FF6FF7707EA041640F6FF4739401D
:104A50004FF6FF7707EA033739434FF6FF7703E056
:104A6000000001400004014007EA052739434FF6E2
:104A70005F773A4046F010073A4301830284F0BD65
:104A8000028B4FF6F3731A400283028B0A430283B0
:104A90007047F0B50C46154600210022068C4FF6F3
:104AA000FE773E400684018B028C4FF60C76314037
:104AB0007E1C06EA03162E4331434FF6F57632404C
:104AC00044F00106324301830284F0BD70B505460F
:104AD0000C46208850B92389A28861882846FFF7B0
:104AE000D8FFE1882846FFF7CBFF25E0208804287F
:104AF0000AD12389A28861882846FFF794FFE188BC
:104B00002846FFF783FF17E0208808280AD1238969
:104B1000A28861882846FFF755FFE1882846FFF7FD
:104B200048FF09E02389A28861882846FFF719FF1A
:104B3000E1882846FFF708FF70BD00210180418011
:104B4000012181800021C180018170472DE9F04160
:104B500005460C4600260127608808B9022600E0B9
:104B60000026A088012801D1022700E00127208823
:104B7000A0B92389A28861882846FFF78AFFE188C7
:104B80002846FFF77DFF23893A4631462846FFF73E
:104B90004AFFE1882846FFF739FF13E02389A288FE
:104BA00061882846FFF73FFFE1882846FFF72EFF80
:104BB00023893A4631462846FFF76BFFE1882846AD
:104BC000FFF75EFFBDE8F0810146486B7047014684
:104BD000886B70470146C86B70470146086C704788
:104BE0000A884B881A438B881A43CB881A430B894F
:104BF0001A434B891A438B891A43A0F84420704703
:104C00000021018041808180C180018141818181B9
:104C1000704731B1B0F8442042F40042A0F844207B
:104C200005E0B0F84420C2F30E02A0F8442070471B
:104C300021B1828842F00402828004E082884FF62B
:104C4000FB731A408280704721B1828842F00102D2
:104C5000828004E082884FF6FE731A40828070479B
:104C60001AB183890B43838102E083898B4383815B
:104C700070478182704702460020138A0B400BB1B7
:104C8000012000E000207047CA430282704730B51F
:104C90000246002000230024158A05EA01039589B5
:104CA00005EA010413B10CB1012000E0002030BD81
:104CB000CA430282704741EA0203A0F848307047B5
:104CC0001AB183890B43838102E083898B438381FB
:104CD000704721B1828842F00802828004E0828815
:104CE0004FF6F7731A408280704701894FF6F872C9
:104CF0001140018170470A46002101894FF68F73E8
:104D0000194011430181704730B504460D462946CC
:104D10002046FFF7F0FF208940F00700208130BDDA
:104D20002DE9F04104460D4616461F46602D06D17A
:104D30003B46012231462046FFF775FE05E03B4623
:104D4000012231462046FFF7A4FE29462046FFF700
:104D5000D2FF208940F007002081BDE8F08130B506
:104D60000C4600210189C9B24FF6FF7505EA0325FB
:104D7000154325432943018130BD2DE9F041054606
:104D80000E4617469846002443463A463146284682
:104D9000FFF7E5FF2C894FF6F870044044F0070454
:104DA0004FF68F70044044F070042C81BDE8F08110
:104DB000F0B504460D4616461F463B463246294688
:104DC0002046FFF7CCFF208940F480402081F0BDD1
:104DD00082884FF68F731A40828082880A438280CD
:104DE000704702894FF6F8731A40028102890A431C
:104DF0000281704702894FF67F731A40028102894F
:104E00000A4302817047F0B50C4615461E46002144
:104E1000002200230189028B038C4FF6F87739407A
:104E200021434FF6FC473A4040F201173A434FF610
:104E3000DD773B404FF6FF7707EA06172F433B43EA
:104E4000018102830384F0BD21B1828842F0800297
:104E5000828004E082884FF67F731A408280704718
:104E6000A0F8501070470000002041490860091D5B
:104E70000860091D0860091D08603E483C4914315E
:104E80000860704700213A498279002A3AD00A46E0
:104E9000126803689A430B461A600A1D1268036879
:104EA0009A430B1D1A60027911440A6803681A4379
:104EB0000A602F4A0832126803689A432C4B083361
:104EC0001A601A1D126803689A43294B0C331A6042
:104ED0004279102A0ED11A1F126803681A43244B14
:104EE00008331A601A1D126803681A43204B0C33EA
:104EF0001A600DE01E49427911440A6803681A439A
:104F00000A6005E0027911440A6803689A430A605E
:104F100070470021016001710C21417100218171F4
:104F200070471349103109680143114A103211606A
:104F30007047014600200E4A143212680A400AB136
:104F4000012000E0002070470949143108607047D3
:104F500001460020064A143212680A400AB10120B4
:104F600000E00020704702491431086070470000DB
:104F7000003C0140FFFF7F004FF0000200B51346E8
:104F800094469646203922BFA0E80C50A0E80C5069
:104F9000B1F12001BFF4F7AF090728BFA0E80C501A
:104FA00048BF0CC05DF804EB890028BF40F8042B13
:104FB00008BF704748BF20F8022B11F0804F18BF80
:104FC00000F8012B704770477047704710B500F02C
:104FD00009F8006810BD10B5044600F003F804603D
:104FE00010BD000000487047C8040020004870470A
:104FF000C80400207546FFF7F9FFAE460500694674
:10500000534620F00700854618B020B5FEF7B2F8E9
:10501000BDE820404FF000064FF000074FF00008B9
:105020004FF0000B21F00701AC46ACE8C009ACE83A
:10503000C009ACE8C009ACE8C0098D467047044619
:10504000AFF300802046FBF7E8F8704701491820CD
:10505000ABBEFEE72600020003B4019841000098B1
:1050600050EAC12018BF04204A0D18BF40F00100CB
:1050700040F2FF72B2EB515F08BF40F0020001281E
:1050800008BF052002B0704710B52F499FED2C1BBB
:105090002DED020B84B0059820F000408842D8BF67
:1050A0009DED040B2DDD2949884209D1049840B9B2
:1050B0004FF00100FFF78FFF00F0E2FC06B010BDDB
:1050C00005DB9DED040B00F0CFFC06B010BD68467B
:1050D0009DED040B00F0E0F810F0030004BF9DED1F
:1050E000021B9DED000B0CD001280ED09DED021B84
:1050F0009DED000B022817D0012000F01DFC06B02A
:1051000010BD00F0E5FA06B010BD9DED021B9DED4F
:10511000000B012000F010FC51EC100B00F0DCFC47
:1051200006B041EC100B10BD00F0D2FA51EC100BA0
:1051300000F0D2FC06B041EC100B10BD00000000E6
:105140000000000000000000FB21E93F0000F07FAC
:1051500010B52F499FED2C1B2DED020B84B0059847
:1051600020F000408842DCBF00209DED040B32DDC2
:105170002849884209D1049840B94FF00100FFF74F
:105180002AFF00F07DFC06B010BD05DB9DED040B91
:1051900000F06AFC06B010BD68469DED040B00F0FF
:1051A0007BF810F0030011D0012818D09DED021BF0
:1051B0009DED000B02281AD000F08AFA51EC100B7A
:1051C00000F08AFC06B041EC100B10BD9DED021BF7
:1051D0009DED000B012000F0AFFB06B010BD9DED72
:1051E000021B9DED000B00F073FA06B010BD01200C
:1051F00000F0A2FB51EC100B00F06EFC06B041EC8D
:10520000100B10BD000000000000000000000000B6
:10521000FB21E93F0000F07F00B52DED048BB0EEDF
:10522000409AF0EE609A83B051EC190B01F074F8DB
:1052300041EC180B18EE100A18EE901A8DED008B49
:10524000002818BF0120084320F00040C0F17F6013
:1052500000F1E040C00F14D019EE101A19EE900AB8
:105260008DED009B002918BF0121084320F000406C
:10527000C0F17F6000F1E040C00F04BF0120FFF7E4
:10528000AAFEB0EE480A03B0F0EE680ABDEC048B4B
:1052900000BD0000000000002DE9F14F04462DED97
:1052A000020B2DED088B8AB09FEDE70B80ED020B12
:1052B000139EE74826F0004585420ADC9DED120B5F
:1052C000002084ED000B0AB0BDEC088B03B0BDE8F4
:1052D000F08FE0489FEDE0AB9FEDE1BBA84247DDDA
:1052E000E14F9FEDE39B9FEDE48B9DED120B53ECA3
:1052F0001A2B51EC100B002E1CDD01F0D9F841ECFB
:10530000100BBD4208D053EC1B2B51EC100B01F0DD
:10531000CFF8C4E900010BE053EC192B51EC100B52
:1053200001F0C6F853EC182B01F0C2F8C4E90001F3
:105330000120C8E700F00EFC41EC100BBD4208D084
:1053400053EC1B2B51EC100B00F004FCC4E90001E2
:105350000BE053EC192B51EC100B00F0FBFB53EC62
:10536000182B00F0F7FBC4E900014FF0FF30AAE76B
:10537000C348A84279DB9DED120B51EC100B00F0F5
:105380009FFB41EC180B9FEDC00B53EC102B00F072
:1053900083FE9FEDBF1B53EC112B00F0DBFB00F0F5
:1053A000E5FD074600F011FE41EC190B53EC1A2BFA
:1053B00000F072FE53EC182B00F0A2FF41EC180B2A
:1053C00053EC1B2B51EC190B00F066FEDFF8C8A262
:1053D00041EC100B4FEA15580125FA4453EC102B01
:1053E00051EC180B01F064F8032DC4E900013DD025
:1053F000C1F30A5005EB4511A8EB000011398142B9
:1054000034DA0AEB051BB0EE48AA9BED000BF0EE78
:1054100068AA53EC102B51EC190B00F03DFE41EC47
:105420001B0B51EC1A0B53EC1B2B01F041F841EC18
:10543000180B51EC1A0B53EC182B01F039F853EC04
:105440001B2B01F035F89BED020B41EC1A0B53ECD2
:10545000102B51EC190B00F01FFE53EC1A2B01F02E
:1054600027F841EC100B6D1CB8E70EE0002EA8BF2A
:105470003846BFF628AF94ED000B51EC100B00F04E
:105480002BFBC4E9000178421DE7C6F3130040F48A
:10549000801EC6F30A50A0F2F530471100F01F0538
:1054A000C5F12000DDF848B0089000200690079074
:1054B0000520EC467949002D07EB0002794408BF2E
:1054C00051F8221009D051F8223001EB8201AB4093
:1054D0004A68089922FA01F11943A1FB0E26A1FBA3
:1054E0000B131A449A4234BF0123002303EB06082E
:1054F0000CEB8003D3E901A60E448E4234BF012198
:10550000002192448A4411B1924502D903E09245A8
:1055100001D2012100E00021C3E901A641444CF879
:105520002010011EA0F10100C4DC029800F100501F
:10553000850F0298DDE903678000DDF8148000F034
:1055400044FD41EC1A0B304600F056FD9FED541B14
:1055500053EC112B00F0A0FD41EC1B0B384600F082
:105560004BFD9FED511B53EC112B00F095FD41ECD1
:10557000180B404600F040FD9FED4D1B53EC112BE6
:1055800000F08AFD41EC190B51EC180B53EC192B70
:1055900000F0E0FA53EC1B2B00F0DCFA53EC1A2B72
:1055A00000F0D8FACDE90801002008909DED080B25
:1055B00053EC1A2B51EC100B00F07AFF53EC1B2B21
:1055C00000F076FF53EC182B00F072FF53EC192B10
:1055D00000F096FE9FED381B53EC112B00F05CFDA4
:1055E0009FED370B41EC180B53EC102B9DED080B86
:1055F00051EC100B00F050FD53EC182B00F0AAFA00
:105600009FED310B41EC180B53EC102B9DED080B6B
:1056100051EC100B00F040FD53EC182B00F09AFAFF
:1056200041EC100B139810F0004F06D06D4251EC76
:10563000100B00F051FA41EC100B284684ED000BE2
:1056400041E6000000000000000000000000000033
:10565000FB21E93F7CD9024000004054FB21F93F87
:105660003163621A61B4D03DFB21F93F00000000B4
:105670000000601A61B4D03D7370032E8A19A33BF9
:10568000FB2139410000000083C8C96D305FE43F51
:10569000000000000000E03FFA1300004813000083
:1056A000000000000000103E000000000000103C60
:1056B000000000000000103A182D4454FB21F93D71
:1056C0003326A611460B113C00000054FB21F93D86
:1056D00010B52DED040B2DED088B82B0B0EE419A84
:1056E000F0EE619A0B9820F000449FED4BABB4F1C3
:1056F000795F11DA9DED0A0B51EC100B00F036FCCE
:10570000002801BFB0EE4A0AF0EE6A0A02B0BDEC12
:10571000088B04BF04B010BD9DED0A0B53EC102B99
:1057200051EC100B00F0B8FC41EC180B3C48062182
:10573000B0EE480AF0EE680A784400F081F853ECC5
:10574000182B51EC100B00F0A7FC9DED0A0B41EC5F
:105750001B0B53EC192B51EC100B00F09DFC41EC92
:10576000190B53EC1B2B51EC180B00F095FC53EC70
:10577000192B00F09DFE9FED2C0B41EC190B53EC07
:10578000102B51EC180B00F087FC41EC100B284853
:10579000844210DA53EC192B51EC100B00F088FE08
:1057A00053EC1A2B00F0ACFD41EC100B02B0BDEC39
:1057B000088B04B010BD1F48A042BCBF9FED1E1B4C
:1057C0008DED001B06DBA4F5001001900020009079
:1057D0009DED001B51EC100B53EC112B00F068FEFB
:1057E0009DED000B41EC180B53EC102B51EC1A0BF8
:1057F00000F05EFE41EC1A0B53EC192B51EC180B28
:1058000000F056FE53EC1A2B00F07AFD41EC100B21
:10581000CCE7000000000000000000000000F03FA6
:105820006C10000000000000000000000000E03FDD
:105830003333D33F0000E93F000000000000D23FB7
:1058400070B504462DED028B4D1E00EBC500B0EE89
:10585000408AF0EE608A90ED000B35F0060017D01C
:1058600053EC182B51EC100B00F016FC41EC100B14
:105870006D1E04EBC50090ED001B51EC100B53ECBA
:10588000112B00F067F941EC100B35F00600E7D161
:10589000022D36D0042D1CD0062D1CBFBDEC028B72
:1058A00070BD53EC182B51EC100B00F0F5FB94ED90
:1058B0000A1B53EC112B00F04DF953EC182B00F0A0
:1058C000EBFB94ED081B53EC112B00F043F941EC7A
:1058D000100B53EC182B51EC100B00F0DDFB94ED8A
:1058E000061B53EC112B00F035F953EC182B00F08C
:1058F000D3FB94ED040B53EC102B00F02BF941EC8F
:10590000100B53EC182B51EC100B00F0C5FB94ED71
:10591000021B53EC112B00F01DF953EC182B00F077
:10592000BBFB94ED001B53EC112B00F013F9BDEC05
:10593000028B41EC100B70BD31B504462DED040B0C
:105940002DED0A8BB0EE41BAF0EE61BA0B989DEDE9
:105950000A0B20F00040B0F1795F0DDA51EC100B2A
:10596000FFF77AFB042808BF00F09AF89DED0A0BB8
:10597000BDEC0A8B05B030BD53EC102B51EC100B75
:1059800000F08AFB41EC180B9DED0A0B53EC182B31
:1059900051EC100B00F080FB41EC190B2C48B0EEE1
:1059A000480AF0EE680A05217844FFF749FF9FEDA9
:1059B0002ACBB0EE40AAF0EE60AA9CB353EC1C2BAD
:1059C00051EC190B00F068FB41EC1C0B53EC1A2B4B
:1059D00051EC190B00F060FB9FED210B41EC190B12
:1059E00053EC102B51EC1B0B00F056FB53EC192B16
:1059F00000F05EFD53EC182B00F04EFB53EC1B2B1C
:105A000000F056FD53EC1C2B00F052FD9DED0A1BDF
:105A100053EC112B00F074FCBDEC0A8B05B041EC8B
:105A2000100B30BDFFE753EC1A2B51EC180B00F0B4
:105A300033FB53EC1C2B00F08DF853EC192B00F0CA
:105A40002BFB9DED0A1B53EC112B00F083F8E3E7D1
:105A5000F40E000000000000495555555555C5BFCE
:105A6000000000000000E03F10B553EC102B51EC9B
:105A7000100B00F06FF841EC100B10BD000000009F
:105A80009FED050B10B553EC102B51EC100B00F0F3
:105A900015F941EC100B10BD0000000000000000E3
:105AA0009FED050B10B553EC102B51EC100B00F0D3
:105AB000F3FA41EC100B10BD0000000000000010D4
:105AC00082B0CDE9000121F0004001909DED000B76
:105AD00002B051EC100B704781F00041704780F02C
